{
  "contractName": "Dex",
  "abi": [
    {
      "inputs": [
        {
          "internalType": "address[]",
          "name": "_tokenAddr",
          "type": "address[]"
        }
      ],
      "stateMutability": "nonpayable",
      "type": "constructor"
    },
    {
      "anonymous": false,
      "inputs": [
        {
          "indexed": false,
          "internalType": "address",
          "name": "account",
          "type": "address"
        },
        {
          "indexed": false,
          "internalType": "address",
          "name": "_tokenAddr",
          "type": "address"
        },
        {
          "indexed": false,
          "internalType": "uint256",
          "name": "_cost",
          "type": "uint256"
        },
        {
          "indexed": false,
          "internalType": "uint256",
          "name": "_amount",
          "type": "uint256"
        }
      ],
      "name": "buy",
      "type": "event"
    },
    {
      "anonymous": false,
      "inputs": [
        {
          "indexed": false,
          "internalType": "address",
          "name": "account",
          "type": "address"
        },
        {
          "indexed": false,
          "internalType": "address",
          "name": "_tokenAddr",
          "type": "address"
        },
        {
          "indexed": false,
          "internalType": "uint256",
          "name": "_cost",
          "type": "uint256"
        },
        {
          "indexed": false,
          "internalType": "uint256",
          "name": "_amount",
          "type": "uint256"
        }
      ],
      "name": "sell",
      "type": "event"
    },
    {
      "inputs": [
        {
          "internalType": "address",
          "name": "",
          "type": "address"
        }
      ],
      "name": "supportedTokenAddr",
      "outputs": [
        {
          "internalType": "bool",
          "name": "",
          "type": "bool"
        }
      ],
      "stateMutability": "view",
      "type": "function",
      "constant": true
    },
    {
      "inputs": [
        {
          "internalType": "address",
          "name": "_tokenAddr",
          "type": "address"
        },
        {
          "internalType": "uint256",
          "name": "_cost",
          "type": "uint256"
        },
        {
          "internalType": "uint256",
          "name": "_amount",
          "type": "uint256"
        }
      ],
      "name": "buyToken",
      "outputs": [],
      "stateMutability": "payable",
      "type": "function",
      "payable": true
    },
    {
      "inputs": [
        {
          "internalType": "address",
          "name": "_tokenAddr",
          "type": "address"
        },
        {
          "internalType": "uint256",
          "name": "_cost",
          "type": "uint256"
        },
        {
          "internalType": "uint256",
          "name": "_amount",
          "type": "uint256"
        }
      ],
      "name": "sellToken",
      "outputs": [],
      "stateMutability": "nonpayable",
      "type": "function"
    }
  ],
  "bytecode": "0x60806040523480156200001157600080fd5b5060405162000faf38038062000faf8339818101604052810190620000379190620001b3565b60005b8151811015620000f257600160008084848151811062000083577f4e487b7100000000000000000000000000000000000000000000000000000000600052603260045260246000fd5b602002602001015173ffffffffffffffffffffffffffffffffffffffff1673ffffffffffffffffffffffffffffffffffffffff16815260200190815260200160002060006101000a81548160ff0219169083151502179055508080620000e990620002c4565b9150506200003a565b50506200039b565b6000620001116200010b8462000221565b620001f8565b905080838252602082019050828560208602820111156200013157600080fd5b60005b858110156200016557816200014a88826200016f565b84526020840193506020830192505060018101905062000134565b5050509392505050565b600081519050620001808162000381565b92915050565b600082601f8301126200019857600080fd5b8151620001aa848260208601620000fa565b91505092915050565b600060208284031215620001c657600080fd5b600082015167ffffffffffffffff811115620001e157600080fd5b620001ef8482850162000186565b91505092915050565b60006200020462000217565b90506200021282826200028e565b919050565b6000604051905090565b600067ffffffffffffffff8211156200023f576200023e62000341565b5b602082029050602081019050919050565b60006200025d8262000264565b9050919050565b600073ffffffffffffffffffffffffffffffffffffffff82169050919050565b6000819050919050565b620002998262000370565b810181811067ffffffffffffffff82111715620002bb57620002ba62000341565b5b80604052505050565b6000620002d18262000284565b91507fffffffffffffffffffffffffffffffffffffffffffffffffffffffffffffffff82141562000307576200030662000312565b5b600182019050919050565b7f4e487b7100000000000000000000000000000000000000000000000000000000600052601160045260246000fd5b7f4e487b7100000000000000000000000000000000000000000000000000000000600052604160045260246000fd5b6000601f19601f8301169050919050565b6200038c8162000250565b81146200039857600080fd5b50565b610c0480620003ab6000396000f3fe6080604052600436106100345760003560e01c8063096db4d6146100395780633e11741f14610076578063e671499b1461009f575b600080fd5b34801561004557600080fd5b50610060600480360381019061005b9190610690565b6100bb565b60405161006d9190610951565b60405180910390f35b34801561008257600080fd5b5061009d600480360381019061009891906106b9565b6100db565b005b6100b960048036038101906100b491906106b9565b610402565b005b60006020528060005260406000206000915054906101000a900460ff1681565b82600115156000808373ffffffffffffffffffffffffffffffffffffffff1673ffffffffffffffffffffffffffffffffffffffff16815260200190815260200160002060009054906101000a900460ff1615151461016e576040517f08c379a0000000000000000000000000000000000000000000000000000000008152600401610165906109ac565b60405180910390fd5b6000849050838173ffffffffffffffffffffffffffffffffffffffff166370a08231336040518263ffffffff1660e01b81526004016101ad9190610891565b60206040518083038186803b1580156101c557600080fd5b505afa1580156101d9573d6000803e3d6000fd5b505050506040513d601f19601f820116820180604052508101906101fd9190610731565b101561023e576040517f08c379a00000000000000000000000000000000000000000000000000000000081526004016102359061098c565b60405180910390fd5b82471015610281576040517f08c379a00000000000000000000000000000000000000000000000000000000081526004016102789061096c565b60405180910390fd5b8073ffffffffffffffffffffffffffffffffffffffff166323b872dd3330876040518463ffffffff1660e01b81526004016102be939291906108ac565b602060405180830381600087803b1580156102d857600080fd5b505af11580156102ec573d6000803e3d6000fd5b505050506040513d601f19601f820116820180604052508101906103109190610708565b5060003373ffffffffffffffffffffffffffffffffffffffff16846040516103379061087c565b60006040518083038185875af1925050503d8060008114610374576040519150601f19603f3d011682016040523d82523d6000602084013e610379565b606091505b50509050806103bd576040517f08c379a00000000000000000000000000000000000000000000000000000000081526004016103b4906109ec565b60405180910390fd5b7f31de7d15e9e6c3b6f319c842341b735c0f9d7a5d06944314495f952400bd74c0338787876040516103f294939291906108e3565b60405180910390a1505050505050565b82600115156000808373ffffffffffffffffffffffffffffffffffffffff1673ffffffffffffffffffffffffffffffffffffffff16815260200190815260200160002060009054906101000a900460ff16151514610495576040517f08c379a000000000000000000000000000000000000000000000000000000000815260040161048c906109ac565b60405180910390fd5b60008490508334146104dc576040517f08c379a00000000000000000000000000000000000000000000000000000000081526004016104d390610a0c565b60405180910390fd5b828173ffffffffffffffffffffffffffffffffffffffff166370a08231306040518263ffffffff1660e01b81526004016105169190610891565b60206040518083038186803b15801561052e57600080fd5b505afa158015610542573d6000803e3d6000fd5b505050506040513d601f19601f820116820180604052508101906105669190610731565b10156105a7576040517f08c379a000000000000000000000000000000000000000000000000000000000815260040161059e906109cc565b60405180910390fd5b8073ffffffffffffffffffffffffffffffffffffffff1663a9059cbb33856040518363ffffffff1660e01b81526004016105e2929190610928565b602060405180830381600087803b1580156105fc57600080fd5b505af1158015610610573d6000803e3d6000fd5b505050506040513d601f19601f820116820180604052508101906106349190610708565b505050505050565b60008135905061064b81610b89565b92915050565b60008151905061066081610ba0565b92915050565b60008135905061067581610bb7565b92915050565b60008151905061068a81610bb7565b92915050565b6000602082840312156106a257600080fd5b60006106b08482850161063c565b91505092915050565b6000806000606084860312156106ce57600080fd5b60006106dc8682870161063c565b93505060206106ed86828701610666565b92505060406106fe86828701610666565b9150509250925092565b60006020828403121561071a57600080fd5b600061072884828501610651565b91505092915050565b60006020828403121561074357600080fd5b60006107518482850161067b565b91505092915050565b61076381610a48565b82525050565b61077281610a5a565b82525050565b6000610785601e83610a37565b915061079082610a90565b602082019050919050565b60006107a8601a83610a37565b91506107b382610ab9565b602082019050919050565b60006107cb601983610a37565b91506107d682610ae2565b602082019050919050565b60006107ee600083610a2c565b91506107f982610b0b565b600082019050919050565b6000610811600e83610a37565b915061081c82610b0e565b602082019050919050565b6000610834601383610a37565b915061083f82610b37565b602082019050919050565b6000610857601183610a37565b915061086282610b60565b602082019050919050565b61087681610a86565b82525050565b6000610887826107e1565b9150819050919050565b60006020820190506108a6600083018461075a565b92915050565b60006060820190506108c1600083018661075a565b6108ce602083018561075a565b6108db604083018461086d565b949350505050565b60006080820190506108f8600083018761075a565b610905602083018661075a565b610912604083018561086d565b61091f606083018461086d565b95945050505050565b600060408201905061093d600083018561075a565b61094a602083018461086d565b9392505050565b60006020820190506109666000830184610769565b92915050565b6000602082019050818103600083015261098581610778565b9050919050565b600060208201905081810360008301526109a58161079b565b9050919050565b600060208201905081810360008301526109c5816107be565b9050919050565b600060208201905081810360008301526109e581610804565b9050919050565b60006020820190508181036000830152610a0581610827565b9050919050565b60006020820190508181036000830152610a258161084a565b9050919050565b600081905092915050565b600082825260208201905092915050565b6000610a5382610a66565b9050919050565b60008115159050919050565b600073ffffffffffffffffffffffffffffffffffffffff82169050919050565b6000819050919050565b7f44657820646f6573206e6f74206861766520656e6f7567682066756e64730000600082015250565b7f496e73756666696369656e7420746f6b656e2062616c616e6365000000000000600082015250565b7f5468697320746f6b656e206973206e6f7420737570706f727400000000000000600082015250565b50565b7f546f6b656e20736f6c64206f7574000000000000000000000000000000000000600082015250565b7f455448207472616e73666572206661696c656400000000000000000000000000600082015250565b7f496e73756666696369656e742066756e64000000000000000000000000000000600082015250565b610b9281610a48565b8114610b9d57600080fd5b50565b610ba981610a5a565b8114610bb457600080fd5b50565b610bc081610a86565b8114610bcb57600080fd5b5056fea2646970667358221220a7d46f656c3135a30c9e74a733f6eaab67559ac534f6d2b4ae0b90321cf9fdce64736f6c63430008040033",
  "immutableReferences": {},
  "source": "// SPDX-License-Identifier: MIT\npragma solidity ^0.8.4;\n\nimport './ERC20.sol';\n\ncontract Dex {\n\n  event buy(address account, address _tokenAddr, uint256 _cost, uint256 _amount);\n  event sell(address account, address _tokenAddr, uint256 _cost, uint256 _amount);\n\n  mapping(address => bool) public supportedTokenAddr;\n\n  modifier supportsToken(address _tokenAddr) {\n    require(supportedTokenAddr[_tokenAddr] == true, \"This token is not support\");\n    _;\n  }\n\n  constructor(address[] memory _tokenAddr) {\n    for (uint i = 0; i < _tokenAddr.length; i++) {\n      supportedTokenAddr[_tokenAddr[i]] = true;\n    }\n  }\n\n  function buyToken(address _tokenAddr, uint256 _cost, uint256 _amount) external payable supportsToken(_tokenAddr) {\n    ERC20 token = ERC20(_tokenAddr);\n    require(msg.value == _cost, \"Insufficient fund\");\n    require(token.balanceOf(address(this)) >= _amount, \"Token sold out\");\n    token.transfer(msg.sender, _amount);\n  }\n\n  function sellToken(address _tokenAddr, uint256 _cost, uint256 _amount) external supportsToken(_tokenAddr) {\n    ERC20 token = ERC20(_tokenAddr);\n    require(token.balanceOf(msg.sender) >= _cost, \"Insufficient token balance\");\n    require(address(this).balance >= _amount, \"Dex does not have enough funds\");\n    token.transferFrom(msg.sender, address(this), _cost);\n    (bool success, ) = payable(msg.sender).call{value: _amount}(\"\");\n     require(success, \"ETH transfer failed\");\n     emit sell(msg.sender, _tokenAddr, _cost, _amount);\n  }\n}",
  "sourcePath": "/Users/naoyukikuroda/study_repo/MyFirstDex/dex/contracts/Dex.sol",
  "compiler": {
    "name": "solc",
    "version": "0.8.4+commit.c7e474f2.Emscripten.clang"
  },
  "schemaVersion": "3.4.7",
  "updatedAt": "2022-07-11T11:11:52.715Z",
  "networkType": "ethereum",
  "devdoc": {
    "kind": "dev",
    "methods": {},
    "version": 1
  },
  "userdoc": {
    "kind": "user",
    "methods": {},
    "version": 1
  }
}