{
  "contractName": "ERC20",
  "abi": [
    {
      "inputs": [
        {
          "internalType": "string",
          "name": "_name",
          "type": "string"
        },
        {
          "internalType": "string",
          "name": "_symbol",
          "type": "string"
        },
        {
          "internalType": "uint256",
          "name": "_totalSupply",
          "type": "uint256"
        }
      ],
      "stateMutability": "nonpayable",
      "type": "constructor"
    },
    {
      "anonymous": false,
      "inputs": [
        {
          "indexed": true,
          "internalType": "address",
          "name": "_owner",
          "type": "address"
        },
        {
          "indexed": true,
          "internalType": "address",
          "name": "_spender",
          "type": "address"
        },
        {
          "indexed": false,
          "internalType": "uint256",
          "name": "_value",
          "type": "uint256"
        }
      ],
      "name": "Approval",
      "type": "event"
    },
    {
      "anonymous": false,
      "inputs": [
        {
          "indexed": true,
          "internalType": "address",
          "name": "_from",
          "type": "address"
        },
        {
          "indexed": true,
          "internalType": "address",
          "name": "_to",
          "type": "address"
        },
        {
          "indexed": false,
          "internalType": "uint256",
          "name": "_value",
          "type": "uint256"
        }
      ],
      "name": "Transfer",
      "type": "event"
    },
    {
      "inputs": [],
      "name": "decimals",
      "outputs": [
        {
          "internalType": "uint8",
          "name": "",
          "type": "uint8"
        }
      ],
      "stateMutability": "view",
      "type": "function"
    },
    {
      "inputs": [],
      "name": "name",
      "outputs": [
        {
          "internalType": "string",
          "name": "",
          "type": "string"
        }
      ],
      "stateMutability": "view",
      "type": "function"
    },
    {
      "inputs": [],
      "name": "symbol",
      "outputs": [
        {
          "internalType": "string",
          "name": "",
          "type": "string"
        }
      ],
      "stateMutability": "view",
      "type": "function"
    },
    {
      "inputs": [],
      "name": "totalSupply",
      "outputs": [
        {
          "internalType": "uint256",
          "name": "",
          "type": "uint256"
        }
      ],
      "stateMutability": "view",
      "type": "function"
    },
    {
      "inputs": [
        {
          "internalType": "address",
          "name": "_owner",
          "type": "address"
        }
      ],
      "name": "balanceOf",
      "outputs": [
        {
          "internalType": "uint256",
          "name": "",
          "type": "uint256"
        }
      ],
      "stateMutability": "view",
      "type": "function"
    },
    {
      "inputs": [
        {
          "internalType": "address",
          "name": "_owner",
          "type": "address"
        },
        {
          "internalType": "address",
          "name": "_spender",
          "type": "address"
        }
      ],
      "name": "allowance",
      "outputs": [
        {
          "internalType": "uint256",
          "name": "",
          "type": "uint256"
        }
      ],
      "stateMutability": "view",
      "type": "function"
    },
    {
      "inputs": [
        {
          "internalType": "address",
          "name": "_to",
          "type": "address"
        },
        {
          "internalType": "uint256",
          "name": "_value",
          "type": "uint256"
        }
      ],
      "name": "transfer",
      "outputs": [
        {
          "internalType": "bool",
          "name": "",
          "type": "bool"
        }
      ],
      "stateMutability": "nonpayable",
      "type": "function"
    },
    {
      "inputs": [
        {
          "internalType": "address",
          "name": "_from",
          "type": "address"
        },
        {
          "internalType": "address",
          "name": "_to",
          "type": "address"
        },
        {
          "internalType": "uint256",
          "name": "_value",
          "type": "uint256"
        }
      ],
      "name": "transferFrom",
      "outputs": [
        {
          "internalType": "bool",
          "name": "",
          "type": "bool"
        }
      ],
      "stateMutability": "nonpayable",
      "type": "function"
    },
    {
      "inputs": [
        {
          "internalType": "address",
          "name": "_spender",
          "type": "address"
        },
        {
          "internalType": "uint256",
          "name": "_value",
          "type": "uint256"
        }
      ],
      "name": "approve",
      "outputs": [
        {
          "internalType": "bool",
          "name": "",
          "type": "bool"
        }
      ],
      "stateMutability": "nonpayable",
      "type": "function"
    }
  ],
  "bytecode": "0x60806040526012600260006101000a81548160ff021916908360ff1602179055503480156200002d57600080fd5b50604051620012e7380380620012e783398181016040528101906200005391906200027e565b82600090805190602001906200006b92919062000145565b5081600190805190602001906200008492919062000145565b5080600381905550600354600460003373ffffffffffffffffffffffffffffffffffffffff1673ffffffffffffffffffffffffffffffffffffffff168152602001908152602001600020819055503373ffffffffffffffffffffffffffffffffffffffff16600073ffffffffffffffffffffffffffffffffffffffff167fddf252ad1be2c89b69c2b068fc378daa952ba7f163c4a11628f55a4df523b3ef60035460405162000134919062000317565b60405180910390a3505050620004c8565b8280546200015390620003d3565b90600052602060002090601f016020900481019282620001775760008555620001c3565b82601f106200019257805160ff1916838001178555620001c3565b82800160010185558215620001c3579182015b82811115620001c2578251825591602001919060010190620001a5565b5b509050620001d29190620001d6565b5090565b5b80821115620001f1576000816000905550600101620001d7565b5090565b60006200020c62000206846200035d565b62000334565b9050828152602081018484840111156200022557600080fd5b620002328482856200039d565b509392505050565b600082601f8301126200024c57600080fd5b81516200025e848260208601620001f5565b91505092915050565b6000815190506200027881620004ae565b92915050565b6000806000606084860312156200029457600080fd5b600084015167ffffffffffffffff811115620002af57600080fd5b620002bd868287016200023a565b935050602084015167ffffffffffffffff811115620002db57600080fd5b620002e9868287016200023a565b9250506040620002fc8682870162000267565b9150509250925092565b620003118162000393565b82525050565b60006020820190506200032e600083018462000306565b92915050565b60006200034062000353565b90506200034e828262000409565b919050565b6000604051905090565b600067ffffffffffffffff8211156200037b576200037a6200046e565b5b62000386826200049d565b9050602081019050919050565b6000819050919050565b60005b83811015620003bd578082015181840152602081019050620003a0565b83811115620003cd576000848401525b50505050565b60006002820490506001821680620003ec57607f821691505b602082108114156200040357620004026200043f565b5b50919050565b62000414826200049d565b810181811067ffffffffffffffff821117156200043657620004356200046e565b5b80604052505050565b7f4e487b7100000000000000000000000000000000000000000000000000000000600052602260045260246000fd5b7f4e487b7100000000000000000000000000000000000000000000000000000000600052604160045260246000fd5b6000601f19601f8301169050919050565b620004b98162000393565b8114620004c557600080fd5b50565b610e0f80620004d86000396000f3fe608060405234801561001057600080fd5b50600436106100935760003560e01c8063313ce56711610066578063313ce5671461013457806370a082311461015257806395d89b4114610182578063a9059cbb146101a0578063dd62ed3e146101d057610093565b806306fdde0314610098578063095ea7b3146100b657806318160ddd146100e657806323b872dd14610104575b600080fd5b6100a0610200565b6040516100ad9190610a83565b60405180910390f35b6100d060048036038101906100cb919061095d565b61028e565b6040516100dd9190610a68565b60405180910390f35b6100ee610380565b6040516100fb9190610b05565b60405180910390f35b61011e6004803603810190610119919061090e565b610386565b60405161012b9190610a68565b60405180910390f35b61013c6104f0565b6040516101499190610b20565b60405180910390f35b61016c600480360381019061016791906108a9565b610503565b6040516101799190610b05565b60405180910390f35b61018a61054c565b6040516101979190610a83565b60405180910390f35b6101ba60048036038101906101b5919061095d565b6105da565b6040516101c79190610a68565b60405180910390f35b6101ea60048036038101906101e591906108d2565b6105f1565b6040516101f79190610b05565b60405180910390f35b6000805461020d90610c69565b80601f016020809104026020016040519081016040528092919081815260200182805461023990610c69565b80156102865780601f1061025b57610100808354040283529160200191610286565b820191906000526020600020905b81548152906001019060200180831161026957829003601f168201915b505050505081565b600081600560003373ffffffffffffffffffffffffffffffffffffffff1673ffffffffffffffffffffffffffffffffffffffff16815260200190815260200160002060008573ffffffffffffffffffffffffffffffffffffffff1673ffffffffffffffffffffffffffffffffffffffff168152602001908152602001600020819055508273ffffffffffffffffffffffffffffffffffffffff163373ffffffffffffffffffffffffffffffffffffffff167f8c5be1e5ebec7d5bd14f71427d1e84f3dd0314c0f7b2291e5b200ac8c7c3b9258460405161036e9190610b05565b60405180910390a36001905092915050565b60035481565b600081600560008673ffffffffffffffffffffffffffffffffffffffff1673ffffffffffffffffffffffffffffffffffffffff16815260200190815260200160002060003373ffffffffffffffffffffffffffffffffffffffff1673ffffffffffffffffffffffffffffffffffffffff168152602001908152602001600020541015610447576040517f08c379a000000000000000000000000000000000000000000000000000000000815260040161043e90610ae5565b60405180910390fd5b610452848484610678565b81600560008673ffffffffffffffffffffffffffffffffffffffff1673ffffffffffffffffffffffffffffffffffffffff16815260200190815260200160002060003373ffffffffffffffffffffffffffffffffffffffff1673ffffffffffffffffffffffffffffffffffffffff16815260200190815260200160002060008282546104de9190610bad565b92505081905550600190509392505050565b600260009054906101000a900460ff1681565b6000600460008373ffffffffffffffffffffffffffffffffffffffff1673ffffffffffffffffffffffffffffffffffffffff168152602001908152602001600020549050919050565b6001805461055990610c69565b80601f016020809104026020016040519081016040528092919081815260200182805461058590610c69565b80156105d25780601f106105a7576101008083540402835291602001916105d2565b820191906000526020600020905b8154815290600101906020018083116105b557829003601f168201915b505050505081565b60006105e7338484610678565b6001905092915050565b6000600560008473ffffffffffffffffffffffffffffffffffffffff1673ffffffffffffffffffffffffffffffffffffffff16815260200190815260200160002060008373ffffffffffffffffffffffffffffffffffffffff1673ffffffffffffffffffffffffffffffffffffffff16815260200190815260200160002054905092915050565b600460008473ffffffffffffffffffffffffffffffffffffffff1673ffffffffffffffffffffffffffffffffffffffff168152602001908152602001600020548111156106fa576040517f08c379a00000000000000000000000000000000000000000000000000000000081526004016106f190610ac5565b60405180910390fd5b8173ffffffffffffffffffffffffffffffffffffffff168373ffffffffffffffffffffffffffffffffffffffff161415610769576040517f08c379a000000000000000000000000000000000000000000000000000000000815260040161076090610aa5565b60405180910390fd5b80600460008573ffffffffffffffffffffffffffffffffffffffff1673ffffffffffffffffffffffffffffffffffffffff16815260200190815260200160002060008282546107b89190610bad565b9250508190555080600460008473ffffffffffffffffffffffffffffffffffffffff1673ffffffffffffffffffffffffffffffffffffffff168152602001908152602001600020600082825461080e9190610b57565b925050819055508173ffffffffffffffffffffffffffffffffffffffff168373ffffffffffffffffffffffffffffffffffffffff167fddf252ad1be2c89b69c2b068fc378daa952ba7f163c4a11628f55a4df523b3ef836040516108729190610b05565b60405180910390a3505050565b60008135905061088e81610dab565b92915050565b6000813590506108a381610dc2565b92915050565b6000602082840312156108bb57600080fd5b60006108c98482850161087f565b91505092915050565b600080604083850312156108e557600080fd5b60006108f38582860161087f565b92505060206109048582860161087f565b9150509250929050565b60008060006060848603121561092357600080fd5b60006109318682870161087f565b93505060206109428682870161087f565b925050604061095386828701610894565b9150509250925092565b6000806040838503121561097057600080fd5b600061097e8582860161087f565b925050602061098f85828601610894565b9150509250929050565b6109a281610bf3565b82525050565b60006109b382610b3b565b6109bd8185610b46565b93506109cd818560208601610c36565b6109d681610cf9565b840191505092915050565b60006109ee601783610b46565b91506109f982610d0a565b602082019050919050565b6000610a11601483610b46565b9150610a1c82610d33565b602082019050919050565b6000610a34602183610b46565b9150610a3f82610d5c565b604082019050919050565b610a5381610c1f565b82525050565b610a6281610c29565b82525050565b6000602082019050610a7d6000830184610999565b92915050565b60006020820190508181036000830152610a9d81846109a8565b905092915050565b60006020820190508181036000830152610abe816109e1565b9050919050565b60006020820190508181036000830152610ade81610a04565b9050919050565b60006020820190508181036000830152610afe81610a27565b9050919050565b6000602082019050610b1a6000830184610a4a565b92915050565b6000602082019050610b356000830184610a59565b92915050565b600081519050919050565b600082825260208201905092915050565b6000610b6282610c1f565b9150610b6d83610c1f565b9250827fffffffffffffffffffffffffffffffffffffffffffffffffffffffffffffffff03821115610ba257610ba1610c9b565b5b828201905092915050565b6000610bb882610c1f565b9150610bc383610c1f565b925082821015610bd657610bd5610c9b565b5b828203905092915050565b6000610bec82610bff565b9050919050565b60008115159050919050565b600073ffffffffffffffffffffffffffffffffffffffff82169050919050565b6000819050919050565b600060ff82169050919050565b60005b83811015610c54578082015181840152602081019050610c39565b83811115610c63576000848401525b50505050565b60006002820490506001821680610c8157607f821691505b60208210811415610c9557610c94610cca565b5b50919050565b7f4e487b7100000000000000000000000000000000000000000000000000000000600052601160045260246000fd5b7f4e487b7100000000000000000000000000000000000000000000000000000000600052602260045260246000fd5b6000601f19601f8301169050919050565b7f63616e206e6f742073656e6420746f206f776e73656c66000000000000000000600082015250565b7f496e73756666696369656e742062616c616e6365000000000000000000000000600082015250565b7f5472616e7366657220616d6f756e74206578636565647320616c6c6f776e616360008201527f6500000000000000000000000000000000000000000000000000000000000000602082015250565b610db481610be1565b8114610dbf57600080fd5b50565b610dcb81610c1f565b8114610dd657600080fd5b5056fea2646970667358221220cbc90c26f5455bd16bfd5a13f9e6438d9d6e410883cf863a648ffbe9321da62664736f6c63430008040033",
  "immutableReferences": {},
  "source": "// SPDX-License-Identifier: MIT\npragma solidity ^0.8.4;\n\n// https://eips.ethereum.org/EIPS/eip-20\n// \n\ncontract ERC20 {\n    string public name;\n    string public symbol;\n    uint8 public decimals = 18;\n    uint public totalSupply;\n\n    mapping(address => uint256) private balances;\n    mapping(address => mapping(address => uint256)) private allowances;\n\n    event Transfer(address indexed _from, address indexed _to, uint256 _value);\n    event Approval(address indexed _owner, address indexed _spender, uint256 _value);\n\n    constructor(string memory _name, string memory _symbol, uint256 _totalSupply) {\n        name = _name;\n        symbol = _symbol;\n        totalSupply = _totalSupply;\n        balances[msg.sender] = totalSupply;\n        emit Transfer(address(0), msg.sender, totalSupply);\n    }\n\n    function balanceOf(address _owner) external view returns (uint256) {\n        return balances[_owner];\n    }\n\n    function allowance(address _owner, address _spender) public view returns (uint256) {\n        return allowances[_owner][_spender];\n    }\n\n    function transfer(address _to, uint256 _value) external returns (bool) {\n        _transfer(msg.sender, _to, _value);\n        return true;\n    }\n\n\n  function transferFrom(address _from, address _to, uint256 _value) external returns (bool){\n    require(allowances[_from][msg.sender] >= _value, \"Transfer amount exceeds allownace\");\n    _transfer(_from, _to, _value);\n    allowances[_from][msg.sender] -= _value;\n    return true;\n  }\n\n    function approve(address _spender, uint256 _value) public returns (bool) {\n        allowances[msg.sender][_spender] = _value;\n        emit Approval(msg.sender, _spender, _value);\n        return true;\n    }\n\n    function _transfer(address _from, address _to, uint256 _value) private {\n        require(_value <= balances[_from], 'Insufficient balance');\n        require(_from != _to, 'can not send to ownself');\n        balances[_from] -= _value;\n        balances[_to] += _value;\n        emit Transfer(_from, _to, _value);\n    }\n\n}\n",
  "sourcePath": "/Users/naoyukikuroda/study_repo/MyFirstDex/dex/contracts/ERC20.sol",
  "compiler": {
    "name": "solc",
    "version": "0.8.4+commit.c7e474f2.Emscripten.clang"
  },
  "schemaVersion": "3.4.7",
  "updatedAt": "2022-07-10T05:48:54.726Z",
  "devdoc": {
    "kind": "dev",
    "methods": {},
    "version": 1
  },
  "userdoc": {
    "kind": "user",
    "methods": {},
    "version": 1
  }
}